{
  "contractName": "VotesContract",
  "abi": [
    {
      "anonymous": false,
      "inputs": [
        {
          "indexed": false,
          "internalType": "uint256",
          "name": "id",
          "type": "uint256"
        },
        {
          "indexed": false,
          "internalType": "string",
          "name": "candidateId",
          "type": "string"
        },
        {
          "indexed": false,
          "internalType": "string",
          "name": "electionId",
          "type": "string"
        },
        {
          "indexed": false,
          "internalType": "uint256",
          "name": "createAt",
          "type": "uint256"
        }
      ],
      "name": "VotesCreated",
      "type": "event"
    },
    {
      "inputs": [
        {
          "internalType": "uint256",
          "name": "",
          "type": "uint256"
        }
      ],
      "name": "votes",
      "outputs": [
        {
          "internalType": "uint256",
          "name": "id",
          "type": "uint256"
        },
        {
          "internalType": "string",
          "name": "candidateId",
          "type": "string"
        },
        {
          "internalType": "string",
          "name": "electionId",
          "type": "string"
        },
        {
          "internalType": "uint256",
          "name": "createAt",
          "type": "uint256"
        }
      ],
      "stateMutability": "view",
      "type": "function",
      "constant": true
    },
    {
      "inputs": [],
      "name": "votesCounter",
      "outputs": [
        {
          "internalType": "uint256",
          "name": "",
          "type": "uint256"
        }
      ],
      "stateMutability": "view",
      "type": "function",
      "constant": true
    },
    {
      "inputs": [
        {
          "internalType": "string",
          "name": "_candidateId",
          "type": "string"
        },
        {
          "internalType": "string",
          "name": "_electionId",
          "type": "string"
        }
      ],
      "name": "createVote",
      "outputs": [],
      "stateMutability": "nonpayable",
      "type": "function"
    }
  ],
  "bytecode": "0x60806040526000805534801561001457600080fd5b506107c5806100246000396000f3fe608060405234801561001057600080fd5b50600436106100415760003560e01c80632e57ce5c146100465780635df81330146100625780639632bdf914610095575b600080fd5b610060600480360381019061005b91906104d8565b6100b3565b005b61007c60048036038101906100779190610586565b610195565b60405161008c949392919061064a565b60405180910390f35b61009d6102d5565b6040516100aa919061069d565b60405180910390f35b6000808154809291906100c5906106e7565b9190505550604051806080016040528060005481526020018381526020018281526020014281525060016000805481526020019081526020016000206000820151816000015560208201518160010190805190602001906101279291906102db565b5060408201518160020190805190602001906101449291906102db565b50606082015181600301559050507f21296b1ed8f0a83c7d4afa9504c87de2e61fdce2bcf345df9aa480608205ecfc600054838342604051610189949392919061064a565b60405180910390a15050565b60016020528060005260406000206000915090508060000154908060010180546101be9061075e565b80601f01602080910402602001604051908101604052809291908181526020018280546101ea9061075e565b80156102375780601f1061020c57610100808354040283529160200191610237565b820191906000526020600020905b81548152906001019060200180831161021a57829003601f168201915b50505050509080600201805461024c9061075e565b80601f01602080910402602001604051908101604052809291908181526020018280546102789061075e565b80156102c55780601f1061029a576101008083540402835291602001916102c5565b820191906000526020600020905b8154815290600101906020018083116102a857829003601f168201915b5050505050908060030154905084565b60005481565b8280546102e79061075e565b90600052602060002090601f0160209004810192826103095760008555610350565b82601f1061032257805160ff1916838001178555610350565b82800160010185558215610350579182015b8281111561034f578251825591602001919060010190610334565b5b50905061035d9190610361565b5090565b5b8082111561037a576000816000905550600101610362565b5090565b6000604051905090565b600080fd5b600080fd5b600080fd5b600080fd5b6000601f19601f8301169050919050565b7f4e487b7100000000000000000000000000000000000000000000000000000000600052604160045260246000fd5b6103e58261039c565b810181811067ffffffffffffffff82111715610404576104036103ad565b5b80604052505050565b600061041761037e565b905061042382826103dc565b919050565b600067ffffffffffffffff821115610443576104426103ad565b5b61044c8261039c565b9050602081019050919050565b82818337600083830152505050565b600061047b61047684610428565b61040d565b90508281526020810184848401111561049757610496610397565b5b6104a2848285610459565b509392505050565b600082601f8301126104bf576104be610392565b5b81356104cf848260208601610468565b91505092915050565b600080604083850312156104ef576104ee610388565b5b600083013567ffffffffffffffff81111561050d5761050c61038d565b5b610519858286016104aa565b925050602083013567ffffffffffffffff81111561053a5761053961038d565b5b610546858286016104aa565b9150509250929050565b6000819050919050565b61056381610550565b811461056e57600080fd5b50565b6000813590506105808161055a565b92915050565b60006020828403121561059c5761059b610388565b5b60006105aa84828501610571565b91505092915050565b6105bc81610550565b82525050565b600081519050919050565b600082825260208201905092915050565b60005b838110156105fc5780820151818401526020810190506105e1565b8381111561060b576000848401525b50505050565b600061061c826105c2565b61062681856105cd565b93506106368185602086016105de565b61063f8161039c565b840191505092915050565b600060808201905061065f60008301876105b3565b81810360208301526106718186610611565b905081810360408301526106858185610611565b905061069460608301846105b3565b95945050505050565b60006020820190506106b260008301846105b3565b92915050565b7f4e487b7100000000000000000000000000000000000000000000000000000000600052601160045260246000fd5b60006106f282610550565b91507fffffffffffffffffffffffffffffffffffffffffffffffffffffffffffffffff8203610724576107236106b8565b5b600182019050919050565b7f4e487b7100000000000000000000000000000000000000000000000000000000600052602260045260246000fd5b6000600282049050600182168061077657607f821691505b6020821081036107895761078861072f565b5b5091905056fea26469706673582212203e16955579f429f77483990b8e9b2fb0b3e1c3c25715937a5c2bddd74673c3e664736f6c634300080d0033",
  "immutableReferences": {},
  "source": "// SPDX-License-Identifier: MIT\r\npragma solidity ^0.8.13;\r\n\r\ncontract VotesContract {\r\n    uint public votesCounter = 0;\r\n\r\n    event VotesCreated(\r\n        uint id,\r\n        string candidateId,\r\n        string electionId,\r\n        uint createAt\r\n    );\r\n\r\n    struct Vote {\r\n        uint256 id;\r\n        string candidateId;\r\n        string electionId;\r\n        uint256 createAt;\r\n    }\r\n    \r\n    mapping (uint256 => Vote) public votes;\r\n\r\n    function createVote(string memory _candidateId, string memory _electionId) public{\r\n        votesCounter++;\r\n        votes[votesCounter] = Vote(votesCounter,_candidateId,_electionId,block.timestamp);\r\n        emit VotesCreated(votesCounter,_candidateId,_electionId,block.timestamp);\r\n    }\r\n\r\n}",
  "sourcePath": "C:\\1DesarrolloSoft\\Nodejs\\DAppVotacion\\contracts\\VotesContract.sol",
  "compiler": {
    "name": "solc",
    "version": "0.8.13+commit.abaa5c0e.Emscripten.clang"
  },
  "schemaVersion": "3.4.7",
  "updatedAt": "2022-05-18T06:19:50.702Z",
  "networkType": "ethereum",
  "devdoc": {
    "kind": "dev",
    "methods": {},
    "version": 1
  },
  "userdoc": {
    "kind": "user",
    "methods": {},
    "version": 1
  }
}